{
  "abi": [
    {
      "inputs": [
        {
          "internalType": "address",
          "name": "_hasher",
          "type": "address"
        },
        {
          "internalType": "address",
          "name": "_verifier",
          "type": "address"
        }
      ],
      "stateMutability": "nonpayable",
      "type": "constructor"
    },
    {
      "inputs": [],
      "name": "Mixer_AlreadySpent",
      "type": "error"
    },
    {
      "inputs": [],
      "name": "Mixer_DepositIncorrectAmount",
      "type": "error"
    },
    {
      "inputs": [],
      "name": "Mixer_DuplicatedCommitmentHash",
      "type": "error"
    },
    {
      "inputs": [],
      "name": "Mixer_InvalidProof",
      "type": "error"
    },
    {
      "inputs": [],
      "name": "Mixer_NotRoot",
      "type": "error"
    },
    {
      "inputs": [],
      "name": "Mixer_PaymentFailed",
      "type": "error"
    },
    {
      "inputs": [],
      "name": "Mixer_TreeFull",
      "type": "error"
    },
    {
      "inputs": [],
      "name": "ReentrancyGuardReentrantCall",
      "type": "error"
    },
    {
      "anonymous": false,
      "inputs": [
        {
          "indexed": false,
          "internalType": "uint256",
          "name": "root",
          "type": "uint256"
        },
        {
          "indexed": false,
          "internalType": "uint256[10]",
          "name": "hashPairings",
          "type": "uint256[10]"
        },
        {
          "indexed": false,
          "internalType": "uint8[10]",
          "name": "hashDirections",
          "type": "uint8[10]"
        }
      ],
      "name": "Deposit",
      "type": "event"
    },
    {
      "anonymous": false,
      "inputs": [
        {
          "indexed": false,
          "internalType": "address",
          "name": "to",
          "type": "address"
        },
        {
          "indexed": false,
          "internalType": "uint256",
          "name": "nullifierHash",
          "type": "uint256"
        }
      ],
      "name": "Withdrawal",
      "type": "event"
    },
    {
      "inputs": [],
      "name": "denomination",
      "outputs": [
        {
          "internalType": "uint256",
          "name": "",
          "type": "uint256"
        }
      ],
      "stateMutability": "view",
      "type": "function"
    },
    {
      "inputs": [
        {
          "internalType": "uint256",
          "name": "_commitment",
          "type": "uint256"
        }
      ],
      "name": "deposit",
      "outputs": [],
      "stateMutability": "payable",
      "type": "function"
    },
    {
      "inputs": [
        {
          "internalType": "uint256",
          "name": "_commitment",
          "type": "uint256"
        }
      ],
      "name": "existsCommitment",
      "outputs": [
        {
          "internalType": "bool",
          "name": "",
          "type": "bool"
        }
      ],
      "stateMutability": "view",
      "type": "function"
    },
    {
      "inputs": [],
      "name": "nextLeafIdx",
      "outputs": [
        {
          "internalType": "uint256",
          "name": "",
          "type": "uint256"
        }
      ],
      "stateMutability": "view",
      "type": "function"
    },
    {
      "inputs": [
        {
          "internalType": "uint256",
          "name": "",
          "type": "uint256"
        }
      ],
      "name": "nullifierHashes",
      "outputs": [
        {
          "internalType": "bool",
          "name": "",
          "type": "bool"
        }
      ],
      "stateMutability": "view",
      "type": "function"
    },
    {
      "inputs": [
        {
          "internalType": "uint256",
          "name": "",
          "type": "uint256"
        }
      ],
      "name": "roots",
      "outputs": [
        {
          "internalType": "bool",
          "name": "",
          "type": "bool"
        }
      ],
      "stateMutability": "view",
      "type": "function"
    },
    {
      "inputs": [],
      "name": "treeLevel",
      "outputs": [
        {
          "internalType": "uint8",
          "name": "",
          "type": "uint8"
        }
      ],
      "stateMutability": "view",
      "type": "function"
    },
    {
      "inputs": [
        {
          "internalType": "uint256[2]",
          "name": "_pA",
          "type": "uint256[2]"
        },
        {
          "internalType": "uint256[2][2]",
          "name": "_pB",
          "type": "uint256[2][2]"
        },
        {
          "internalType": "uint256[2]",
          "name": "_pC",
          "type": "uint256[2]"
        },
        {
          "internalType": "uint256[2]",
          "name": "_pubSignals",
          "type": "uint256[2]"
        }
      ],
      "name": "withdraw",
      "outputs": [],
      "stateMutability": "payable",
      "type": "function"
    }
  ],
  "bytecode": {
    "object": "0x6002805460ff60a01b1916600560a11b17905567016345785d8a000060035560006004556101c06040527f17c08d3821f9d3d110fed48e53c33188796904f44dd970b8d9ce60ff68f84a8b60809081527f9c62f44ef2c19e6861aec5e078e41a78cb6a40e2b00d664f323bf40abb104ae860a0527f45275af790fafa97a510272d2fe2f667d71473e72a81cd98bedb6490e373fec360c0527f56ddc25ed02cdfa57daa604f0b8f80cdcdafebbf28a047aaee60233dab6f93fe60e0527f863ba4a4b2bbde4fe9b3acb95f67e752937ce5d3b460b51346bf394826eba761610100527f1fe461b31d13898138756b6959eafbeac6f88d62df6bba54e776e9caa64819ab610120527f9f4bf59fc9cf23b4014abfeddfe222f778d3d97212ab535435c0798418544b2b6101408190527fbc5af6d249412e4584cd15cabea0f6b797ff5f8892892f6d1b8c2b394b6554c7610160527f8ed86f0d1146275651529d08ab9496e7c385e139bcfc829a78c9706effe84509610180526101a05261018890600990600a6101e9565b5034801561019557600080fd5b50604051610d94380380610d948339810160408190526101b491610258565b60016000819055600280546001600160a01b03199081166001600160a01b03958616179091558154169190921617905561028b565b82600a8101928215610217579160200282015b828111156102175782518255916020019190600101906101fc565b50610223929150610227565b5090565b5b808211156102235760008155600101610228565b80516001600160a01b038116811461025357600080fd5b919050565b6000806040838503121561026b57600080fd5b6102748361023c565b91506102826020840161023c565b90509250929050565b610afa8061029a6000396000f3fe60806040526004361061007b5760003560e01c8063b6b55f251161004e578063b6b55f2514610131578063b8e7956414610146578063c2b40ae414610179578063c78784d7146101a957600080fd5b80631f79a1e91461008057806345e0523f146100c55780638bca6d16146100e9578063ae9779b8146100ff575b600080fd5b34801561008c57600080fd5b506100b061009b366004610757565b60076020526000908152604090205460ff1681565b60405190151581526020015b60405180910390f35b3480156100d157600080fd5b506100db60045481565b6040519081526020016100bc565b3480156100f557600080fd5b506100db60035481565b34801561010b57600080fd5b506100b061011a366004610757565b60009081526008602052604090205460ff16151590565b61014461013f366004610757565b6101bc565b005b34801561015257600080fd5b5060025461016790600160a01b900460ff1681565b60405160ff90911681526020016100bc565b34801561018557600080fd5b506100b0610194366004610757565b60056020526000908152604090205460ff1681565b6101446101b7366004610787565b6104f8565b6101c46106f0565b60035434146101e65760405163787b0b1560e01b815260040160405180910390fd5b60008181526008602052604090205460ff16156102165760405163582622b760e11b815260040160405180910390fd5b600260149054906101000a900460ff16600261023291906108e1565b6004541061025357604051630fb5594360e11b815260040160405180910390fd5b600061025d61071a565b61026561071a565b60045484600080610274610739565b60005b60025460ff600160a01b909104811690821610156104545760028054600160a01b900460ff1660009081526006602052604090208690556102b8908761090d565b6000036103375784935060098160ff16600a81106102d8576102d8610921565b0154925060098160ff16600a81106102f2576102f2610921565b0154888260ff16600a811061030957610309610921565b602002015260008760ff8316600a811061032557610325610921565b60ff909216602092909202015261038d565b60ff8116600081815260066020526040902054945085935084908990600a811061036357610363610921565b602002015260018760ff8316600a811061037f5761037f610921565b60ff90921660209290920201525b838260006020020152828260016020020181815250506000600260009054906101000a90046001600160a01b03166001600160a01b031663d622e5a4620249f0858e6040518463ffffffff1660e01b81526004016103ec929190610937565b6020604051808303818786fa158015610409573d6000803e3d6000fd5b50505050506040513d601f19601f8201168201806040525081019061042e919061096f565b955085905061043e600288610988565b965050808061044c9061099c565b915050610277565b506000848152600560205260408120805460ff1916600190811790915560048054969a508a96919290916104899084906109bb565b909155505060008981526008602052604090819020805460ff19166001179055517fe6ab8667cb740d6c65a4ad321c031eb42f6c5085d5753238d1b2e1e370c13483906104db908a908a908a906109ce565b60405180910390a150505050505050506104f56001600055565b50565b6105006106f0565b602080820135600081815260079092526040909120548235919060ff161561053b57604051630e28451b60e41b815260040160405180910390fd5b60008281526005602052604090205460ff1661056a5760405163a7c41e9d60e01b815260040160405180910390fd5b60015460408051606081018252848152602081018490523381830181905291516308a3cff560e11b815291926000926001600160a01b03909116916311479fea916105bd918c918c918c91600401610a34565b602060405180830381865afa1580156105da573d6000803e3d6000fd5b505050506040513d601f19601f820116820180604052508101906105fe9190610aa2565b90508061061e57604051635d93f88960e11b815260040160405180910390fd5b600083815260076020526040808220805460ff19166001179055600354905133929183918381818185875af1925050503d806000811461067a576040519150601f19603f3d011682016040523d82523d6000602084013e61067f565b606091505b50509050806106a15760405163b89efe0360e01b815260040160405180910390fd5b60408051338152602081018790527f7fcf532c15f0a6db0bd6d0e038bea71d30d808c7d98cb3bf7268a95bf5081b65910160405180910390a15050505050506106ea6001600055565b50505050565b60026000540361071357604051633ee5aeb560e01b815260040160405180910390fd5b6002600055565b604051806101400160405280600a906020820280368337509192915050565b60405180604001604052806002906020820280368337509192915050565b60006020828403121561076957600080fd5b5035919050565b806040810183101561078157600080fd5b92915050565b600080600080610140858703121561079e57600080fd5b6107a88686610770565b935060c08501868111156107bb57600080fd5b6040860193506107cb8782610770565b9250506107dc866101008701610770565b905092959194509250565b634e487b7160e01b600052601160045260246000fd5b600181815b8085111561083857816000190482111561081e5761081e6107e7565b8085161561082b57918102915b93841c9390800290610802565b509250929050565b60008261084f57506001610781565b8161085c57506000610781565b8160018114610872576002811461087c57610898565b6001915050610781565b60ff84111561088d5761088d6107e7565b50506001821b610781565b5060208310610133831016604e8410600b84101617156108bb575081810a610781565b6108c583836107fd565b80600019048211156108d9576108d96107e7565b029392505050565b60006108f060ff841683610840565b9392505050565b634e487b7160e01b600052601260045260246000fd5b60008261091c5761091c6108f7565b500690565b634e487b7160e01b600052603260045260246000fd5b60608101818460005b600281101561095f578151835260209283019290910190600101610940565b5050508260408301529392505050565b60006020828403121561098157600080fd5b5051919050565b600082610997576109976108f7565b500490565b600060ff821660ff81036109b2576109b26107e7565b60010192915050565b80820180821115610781576107816107e7565b8381526102a0810160208083018560005b600a8110156109fc578151835291830191908301906001016109df565b50505061016083018460005b600a811015610a2857815160ff1683529183019190830190600101610a08565b50505050949350505050565b61016081016040808784378083018660005b6002811015610a6357838284379183019190830190600101610a46565b505050808560c08501375061010082018360005b6003811015610a96578151835260209283019290910190600101610a77565b50505095945050505050565b600060208284031215610ab457600080fd5b815180151581146108f057600080fdfea2646970667358221220a1d84699b0f4f3c8fe913801f60fc39a8735aa0a3cc017f7d1d9cf53d393ef7664736f6c63430008140033",
    "linkReferences": {}
  },
  "methodIdentifiers": {
    "denomination()": "8bca6d16",
    "deposit(uint256)": "b6b55f25",
    "existsCommitment(uint256)": "ae9779b8",
    "nextLeafIdx()": "45e0523f",
    "nullifierHashes(uint256)": "1f79a1e9",
    "roots(uint256)": "c2b40ae4",
    "treeLevel()": "b8e79564",
    "withdraw(uint256[2],uint256[2][2],uint256[2],uint256[2])": "c78784d7"
  },
  "id": 23
}