{
  "abi": [
    {
      "inputs": [
        {
          "internalType": "address",
          "name": "_hasher",
          "type": "address"
        },
        {
          "internalType": "address",
          "name": "_verifier",
          "type": "address"
        }
      ],
      "stateMutability": "nonpayable",
      "type": "constructor"
    },
    {
      "inputs": [],
      "name": "Mixer_AlreadySpent",
      "type": "error"
    },
    {
      "inputs": [],
      "name": "Mixer_DepositIncorrectAmount",
      "type": "error"
    },
    {
      "inputs": [],
      "name": "Mixer_DuplicatedCommitmentHash",
      "type": "error"
    },
    {
      "inputs": [],
      "name": "Mixer_InvalidProof",
      "type": "error"
    },
    {
      "inputs": [],
      "name": "Mixer_NotRoot",
      "type": "error"
    },
    {
      "inputs": [],
      "name": "Mixer_PaymentFailed",
      "type": "error"
    },
    {
      "inputs": [],
      "name": "Mixer_TreeFull",
      "type": "error"
    },
    {
      "anonymous": false,
      "inputs": [
        {
          "indexed": false,
          "internalType": "uint256",
          "name": "leafIndex",
          "type": "uint256"
        },
        {
          "indexed": false,
          "internalType": "uint256",
          "name": "commitment",
          "type": "uint256"
        },
        {
          "indexed": false,
          "internalType": "uint256",
          "name": "timestamp",
          "type": "uint256"
        }
      ],
      "name": "Deposit",
      "type": "event"
    },
    {
      "anonymous": false,
      "inputs": [
        {
          "indexed": false,
          "internalType": "address",
          "name": "to",
          "type": "address"
        },
        {
          "indexed": false,
          "internalType": "uint256",
          "name": "nullifierHash",
          "type": "uint256"
        }
      ],
      "name": "Withdrawal",
      "type": "event"
    },
    {
      "inputs": [],
      "name": "denomination",
      "outputs": [
        {
          "internalType": "uint256",
          "name": "",
          "type": "uint256"
        }
      ],
      "stateMutability": "view",
      "type": "function"
    },
    {
      "inputs": [
        {
          "internalType": "uint256",
          "name": "_commitment",
          "type": "uint256"
        }
      ],
      "name": "deposit",
      "outputs": [],
      "stateMutability": "payable",
      "type": "function"
    },
    {
      "inputs": [
        {
          "internalType": "uint256",
          "name": "_commitment",
          "type": "uint256"
        }
      ],
      "name": "existsCommitment",
      "outputs": [
        {
          "internalType": "bool",
          "name": "",
          "type": "bool"
        }
      ],
      "stateMutability": "view",
      "type": "function"
    },
    {
      "inputs": [],
      "name": "nextLeafIdx",
      "outputs": [
        {
          "internalType": "uint256",
          "name": "",
          "type": "uint256"
        }
      ],
      "stateMutability": "view",
      "type": "function"
    },
    {
      "inputs": [
        {
          "internalType": "uint256",
          "name": "",
          "type": "uint256"
        }
      ],
      "name": "nullifierHashes",
      "outputs": [
        {
          "internalType": "bool",
          "name": "",
          "type": "bool"
        }
      ],
      "stateMutability": "view",
      "type": "function"
    },
    {
      "inputs": [
        {
          "internalType": "uint256",
          "name": "",
          "type": "uint256"
        }
      ],
      "name": "roots",
      "outputs": [
        {
          "internalType": "bool",
          "name": "",
          "type": "bool"
        }
      ],
      "stateMutability": "view",
      "type": "function"
    },
    {
      "inputs": [],
      "name": "treeLevel",
      "outputs": [
        {
          "internalType": "uint8",
          "name": "",
          "type": "uint8"
        }
      ],
      "stateMutability": "view",
      "type": "function"
    },
    {
      "inputs": [
        {
          "internalType": "uint256[2]",
          "name": "_pA",
          "type": "uint256[2]"
        },
        {
          "internalType": "uint256[2][2]",
          "name": "_pB",
          "type": "uint256[2][2]"
        },
        {
          "internalType": "uint256[2]",
          "name": "_pC",
          "type": "uint256[2]"
        },
        {
          "internalType": "uint256[2]",
          "name": "_pubSignals",
          "type": "uint256[2]"
        }
      ],
      "name": "withdraw",
      "outputs": [],
      "stateMutability": "payable",
      "type": "function"
    }
  ],
  "bytecode": {
    "object": "0x6002805460ff60a01b1916600560a11b17905567016345785d8a000060035560006004556101c06040527f17c08d3821f9d3d110fed48e53c33188796904f44dd970b8d9ce60ff68f84a8b60809081527f9c62f44ef2c19e6861aec5e078e41a78cb6a40e2b00d664f323bf40abb104ae860a0527f45275af790fafa97a510272d2fe2f667d71473e72a81cd98bedb6490e373fec360c0527f56ddc25ed02cdfa57daa604f0b8f80cdcdafebbf28a047aaee60233dab6f93fe60e0527f863ba4a4b2bbde4fe9b3acb95f67e752937ce5d3b460b51346bf394826eba761610100527f1fe461b31d13898138756b6959eafbeac6f88d62df6bba54e776e9caa64819ab610120527f9f4bf59fc9cf23b4014abfeddfe222f778d3d97212ab535435c0798418544b2b6101408190527fbc5af6d249412e4584cd15cabea0f6b797ff5f8892892f6d1b8c2b394b6554c7610160527f8ed86f0d1146275651529d08ab9496e7c385e139bcfc829a78c9706effe84509610180526101a05261018890600990600a6101e9565b5034801561019557600080fd5b50604051610d82380380610d828339810160408190526101b491610258565b60016000819055600280546001600160a01b03199081166001600160a01b03958616179091558154169190921617905561028b565b82600a8101928215610217579160200282015b828111156102175782518255916020019190600101906101fc565b50610223929150610227565b5090565b5b808211156102235760008155600101610228565b80516001600160a01b038116811461025357600080fd5b919050565b6000806040838503121561026b57600080fd5b6102748361023c565b91506102826020840161023c565b90509250929050565b610ae88061029a6000396000f3fe60806040526004361061007b5760003560e01c8063b6b55f251161004e578063b6b55f2514610131578063b8e7956414610146578063c2b40ae414610179578063c78784d7146101a957600080fd5b80631f79a1e91461008057806345e0523f146100c55780638bca6d16146100e9578063ae9779b8146100ff575b600080fd5b34801561008c57600080fd5b506100b061009b366004610798565b60076020526000908152604090205460ff1681565b60405190151581526020015b60405180910390f35b3480156100d157600080fd5b506100db60045481565b6040519081526020016100bc565b3480156100f557600080fd5b506100db60035481565b34801561010b57600080fd5b506100b061011a366004610798565b60009081526008602052604090205460ff16151590565b61014461013f366004610798565b6101bc565b005b34801561015257600080fd5b5060025461016790600160a01b900460ff1681565b60405160ff90911681526020016100bc565b34801561018557600080fd5b506100b0610194366004610798565b60056020526000908152604090205460ff1681565b6101446101b73660046107c8565b610506565b6101c46106fe565b60035434146101e65760405163787b0b1560e01b815260040160405180910390fd5b60008181526008602052604090205460ff16156102165760405163582622b760e11b815260040160405180910390fd5b600260149054906101000a900460ff1660026102329190610922565b6004541061025357604051630fb5594360e11b815260040160405180910390fd5b600061025d61075b565b61026561075b565b6004548460008061027461077a565b60005b60025460ff600160a01b9091048116908216101561044f5761029a60028761094e565b6000036103325784935060098160ff16600a81106102ba576102ba610962565b0154925060098160ff16600a81106102d4576102d4610962565b0154888260ff16600a81106102eb576102eb610962565b602002015260008760ff8316600a811061030757610307610962565b60ff928316602091820292909201919091529082166000908152600690915260409020859055610388565b60ff8116600081815260066020526040902054945085935084908990600a811061035e5761035e610962565b602002015260018760ff8316600a811061037a5761037a610962565b60ff90921660209290920201525b838260006020020152828260016020020181815250506000600260009054906101000a90046001600160a01b03166001600160a01b031663d622e5a4620493e0858e6040518463ffffffff1660e01b81526004016103e7929190610978565b6020604051808303818786fa158015610404573d6000803e3d6000fd5b50505050506040513d601f19601f8201168201806040525081019061042991906109b0565b95508590506104396002886109c9565b9650508080610447906109dd565b915050610277565b506000848152600560205260408120805460ff1916600190811790915560048054969a508a96919290916104849084906109fc565b90915550506000898152600860205260409020805460ff191660019081179091556004547f33da4f9b82b3e18a281ca2cabbe2f076925692abb593b7ea3f850009e8ec9770916104d391610a0f565b60408051918252602082018c9052429082015260600160405180910390a150505050505050506105036001600055565b50565b61050e6106fe565b602080820135600081815260079092526040909120548235919060ff161561054957604051630e28451b60e41b815260040160405180910390fd5b60008281526005602052604090205460ff166105785760405163a7c41e9d60e01b815260040160405180910390fd5b60015460408051606081018252848152602081018490523381830181905291516308a3cff560e11b815291926000926001600160a01b03909116916311479fea916105cb918c918c918c91600401610a22565b602060405180830381865afa1580156105e8573d6000803e3d6000fd5b505050506040513d601f19601f8201168201806040525081019061060c9190610a90565b90508061062c57604051635d93f88960e11b815260040160405180910390fd5b600083815260076020526040808220805460ff19166001179055600354905133929183918381818185875af1925050503d8060008114610688576040519150601f19603f3d011682016040523d82523d6000602084013e61068d565b606091505b50509050806106af5760405163b89efe0360e01b815260040160405180910390fd5b60408051338152602081018790527f7fcf532c15f0a6db0bd6d0e038bea71d30d808c7d98cb3bf7268a95bf5081b65910160405180910390a15050505050506106f86001600055565b50505050565b6002600054036107545760405162461bcd60e51b815260206004820152601f60248201527f5265656e7472616e637947756172643a207265656e7472616e742063616c6c00604482015260640160405180910390fd5b6002600055565b604051806101400160405280600a906020820280368337509192915050565b60405180604001604052806002906020820280368337509192915050565b6000602082840312156107aa57600080fd5b5035919050565b80604081018310156107c257600080fd5b92915050565b60008060008061014085870312156107df57600080fd5b6107e986866107b1565b935060c08501868111156107fc57600080fd5b60408601935061080c87826107b1565b92505061081d8661010087016107b1565b905092959194509250565b634e487b7160e01b600052601160045260246000fd5b600181815b8085111561087957816000190482111561085f5761085f610828565b8085161561086c57918102915b93841c9390800290610843565b509250929050565b600082610890575060016107c2565b8161089d575060006107c2565b81600181146108b357600281146108bd576108d9565b60019150506107c2565b60ff8411156108ce576108ce610828565b50506001821b6107c2565b5060208310610133831016604e8410600b84101617156108fc575081810a6107c2565b610906838361083e565b806000190482111561091a5761091a610828565b029392505050565b600061093160ff841683610881565b9392505050565b634e487b7160e01b600052601260045260246000fd5b60008261095d5761095d610938565b500690565b634e487b7160e01b600052603260045260246000fd5b60608101818460005b60028110156109a0578151835260209283019290910190600101610981565b5050508260408301529392505050565b6000602082840312156109c257600080fd5b5051919050565b6000826109d8576109d8610938565b500490565b600060ff821660ff81036109f3576109f3610828565b60010192915050565b808201808211156107c2576107c2610828565b818103818111156107c2576107c2610828565b61016081016040808784378083018660005b6002811015610a5157838284379183019190830190600101610a34565b505050808560c08501375061010082018360005b6003811015610a84578151835260209283019290910190600101610a65565b50505095945050505050565b600060208284031215610aa257600080fd5b8151801515811461093157600080fdfea2646970667358221220d99e0a767df2010d0293714fa7f354089f5ba2b4e81280d34b34be94a81bcce564736f6c63430008140033",
    "linkReferences": {}
  },
  "methodIdentifiers": {
    "denomination()": "8bca6d16",
    "deposit(uint256)": "b6b55f25",
    "existsCommitment(uint256)": "ae9779b8",
    "nextLeafIdx()": "45e0523f",
    "nullifierHashes(uint256)": "1f79a1e9",
    "roots(uint256)": "c2b40ae4",
    "treeLevel()": "b8e79564",
    "withdraw(uint256[2],uint256[2][2],uint256[2],uint256[2])": "c78784d7"
  },
  "id": 22
}